{
  "contractName": "Lottary",
  "abi": [
    {
      "inputs": [],
      "stateMutability": "nonpayable",
      "type": "constructor"
    },
    {
      "inputs": [
        {
          "internalType": "uint256",
          "name": "",
          "type": "uint256"
        }
      ],
      "name": "players",
      "outputs": [
        {
          "internalType": "uint256",
          "name": "amount",
          "type": "uint256"
        },
        {
          "internalType": "address",
          "name": "userAdd",
          "type": "address"
        }
      ],
      "stateMutability": "view",
      "type": "function",
      "constant": true
    },
    {
      "inputs": [],
      "name": "winner",
      "outputs": [
        {
          "internalType": "address payable",
          "name": "",
          "type": "address"
        }
      ],
      "stateMutability": "view",
      "type": "function",
      "constant": true
    },
    {
      "stateMutability": "payable",
      "type": "receive",
      "payable": true
    },
    {
      "inputs": [
        {
          "internalType": "address",
          "name": "v",
          "type": "address"
        }
      ],
      "name": "exists",
      "outputs": [
        {
          "internalType": "uint256",
          "name": "",
          "type": "uint256"
        }
      ],
      "stateMutability": "view",
      "type": "function",
      "constant": true
    },
    {
      "inputs": [],
      "name": "allPlayers",
      "outputs": [
        {
          "components": [
            {
              "internalType": "uint256",
              "name": "amount",
              "type": "uint256"
            },
            {
              "internalType": "address",
              "name": "userAdd",
              "type": "address"
            }
          ],
          "internalType": "struct Lottary.Players[]",
          "name": "",
          "type": "tuple[]"
        }
      ],
      "stateMutability": "view",
      "type": "function",
      "constant": true
    },
    {
      "inputs": [],
      "name": "getBalance",
      "outputs": [
        {
          "internalType": "uint256",
          "name": "",
          "type": "uint256"
        }
      ],
      "stateMutability": "view",
      "type": "function",
      "constant": true
    },
    {
      "inputs": [],
      "name": "pickWinner",
      "outputs": [],
      "stateMutability": "nonpayable",
      "type": "function"
    }
  ],
  "bytecode": "0x608060405234801561001057600080fd5b5033600160006101000a81548173ffffffffffffffffffffffffffffffffffffffff021916908373ffffffffffffffffffffffffffffffffffffffff160217905550610e77806100616000396000f3fe6080604052600436106100595760003560e01c806312065fe0146101c25780635d495aea146101ed578063b0ec809414610204578063dfbf53ae1461022f578063f6a3d24e1461025a578063f71d96cb14610297576101bd565b366101bd57670de0b6b3a76400003410156100a9576040517f08c379a00000000000000000000000000000000000000000000000000000000081526004016100a090610862565b60405180910390fd5b60006100b4336102d5565b90506000810361017257600060405180604001604052803481526020013373ffffffffffffffffffffffffffffffffffffffff16815250905060008190806001815401808255809150506001900390600052602060002090600202016000909190919091506000820151816000015560208201518160010160006101000a81548173ffffffffffffffffffffffffffffffffffffffff021916908373ffffffffffffffffffffffffffffffffffffffff1602179055505050506101bb565b34600060018361018291906108bb565b81548110610193576101926108ef565b5b906000526020600020906002020160000160008282546101b3919061091e565b925050819055505b005b600080fd5b3480156101ce57600080fd5b506101d7610395565b6040516101e49190610961565b60405180910390f35b3480156101f957600080fd5b5061020261042d565b005b34801561021057600080fd5b5061021961062d565b6040516102269190610aaa565b60405180910390f35b34801561023b57600080fd5b506102446106ec565b6040516102519190610aed565b60405180910390f35b34801561026657600080fd5b50610281600480360381019061027c9190610b39565b6102d5565b60405161028e9190610961565b60405180910390f35b3480156102a357600080fd5b506102be60048036038101906102b99190610b92565b610712565b6040516102cc929190610bce565b60405180910390f35b600080600090505b60008054905081101561038a57600081815481106102fe576102fd6108ef565b5b906000526020600020906002020160010160009054906101000a900473ffffffffffffffffffffffffffffffffffffffff1673ffffffffffffffffffffffffffffffffffffffff168373ffffffffffffffffffffffffffffffffffffffff16036103775760018161036f919061091e565b915050610390565b808061038290610bf7565b9150506102dd565b50600090505b919050565b60003373ffffffffffffffffffffffffffffffffffffffff16600160009054906101000a900473ffffffffffffffffffffffffffffffffffffffff1673ffffffffffffffffffffffffffffffffffffffff1614610427576040517f08c379a000000000000000000000000000000000000000000000000000000000815260040161041e90610c8b565b60405180910390fd5b47905090565b600160009054906101000a900473ffffffffffffffffffffffffffffffffffffffff1673ffffffffffffffffffffffffffffffffffffffff163373ffffffffffffffffffffffffffffffffffffffff16146104bd576040517f08c379a00000000000000000000000000000000000000000000000000000000081526004016104b490610cf7565b60405180910390fd5b60036000805490501015610506576040517f08c379a00000000000000000000000000000000000000000000000000000000081526004016104fd90610d63565b60405180910390fd5b6000610510610766565b905060008080549050826105249190610db2565b90506000818154811061053a576105396108ef565b5b906000526020600020906002020160010160009054906101000a900473ffffffffffffffffffffffffffffffffffffffff16600260006101000a81548173ffffffffffffffffffffffffffffffffffffffff021916908373ffffffffffffffffffffffffffffffffffffffff160217905550600260009054906101000a900473ffffffffffffffffffffffffffffffffffffffff1673ffffffffffffffffffffffffffffffffffffffff166108fc6105f0610395565b9081150290604051600060405180830381858888f1935050505015801561061b573d6000803e3d6000fd5b50600080610629919061079b565b5050565b60606000805480602002602001604051908101604052809291908181526020016000905b828210156106e35783829060005260206000209060020201604051806040016040529081600082015481526020016001820160009054906101000a900473ffffffffffffffffffffffffffffffffffffffff1673ffffffffffffffffffffffffffffffffffffffff1673ffffffffffffffffffffffffffffffffffffffff168152505081526020019060010190610651565b50505050905090565b600260009054906101000a900473ffffffffffffffffffffffffffffffffffffffff1681565b6000818154811061072257600080fd5b90600052602060002090600202016000915090508060000154908060010160009054906101000a900473ffffffffffffffffffffffffffffffffffffffff16905082565b600042444360405160200161077d93929190610e04565b6040516020818303038152906040528051906020012060001c905090565b50805460008255600202906000526020600020908101906107bc91906107bf565b50565b5b80821115610801576000808201600090556001820160006101000a81549073ffffffffffffffffffffffffffffffffffffffff0219169055506002016107c0565b5090565b600082825260208201905092915050565b7f506c656173652070617920312061746c65617374203120657468657200000000600082015250565b600061084c601c83610805565b915061085782610816565b602082019050919050565b6000602082019050818103600083015261087b8161083f565b9050919050565b6000819050919050565b7f4e487b7100000000000000000000000000000000000000000000000000000000600052601160045260246000fd5b60006108c682610882565b91506108d183610882565b92508282039050818111156108e9576108e861088c565b5b92915050565b7f4e487b7100000000000000000000000000000000000000000000000000000000600052603260045260246000fd5b600061092982610882565b915061093483610882565b925082820190508082111561094c5761094b61088c565b5b92915050565b61095b81610882565b82525050565b60006020820190506109766000830184610952565b92915050565b600081519050919050565b600082825260208201905092915050565b6000819050602082019050919050565b6109b181610882565b82525050565b600073ffffffffffffffffffffffffffffffffffffffff82169050919050565b60006109e2826109b7565b9050919050565b6109f2816109d7565b82525050565b604082016000820151610a0e60008501826109a8565b506020820151610a2160208501826109e9565b50505050565b6000610a3383836109f8565b60408301905092915050565b6000602082019050919050565b6000610a578261097c565b610a618185610987565b9350610a6c83610998565b8060005b83811015610a9d578151610a848882610a27565b9750610a8f83610a3f565b925050600181019050610a70565b5085935050505092915050565b60006020820190508181036000830152610ac48184610a4c565b905092915050565b6000610ad7826109b7565b9050919050565b610ae781610acc565b82525050565b6000602082019050610b026000830184610ade565b92915050565b600080fd5b610b16816109d7565b8114610b2157600080fd5b50565b600081359050610b3381610b0d565b92915050565b600060208284031215610b4f57610b4e610b08565b5b6000610b5d84828501610b24565b91505092915050565b610b6f81610882565b8114610b7a57600080fd5b50565b600081359050610b8c81610b66565b92915050565b600060208284031215610ba857610ba7610b08565b5b6000610bb684828501610b7d565b91505092915050565b610bc8816109d7565b82525050565b6000604082019050610be36000830185610952565b610bf06020830184610bbf565b9392505050565b6000610c0282610882565b91507fffffffffffffffffffffffffffffffffffffffffffffffffffffffffffffffff8203610c3457610c3361088c565b5b600182019050919050565b7f6572726f7220666f756e64200000000000000000000000000000000000000000600082015250565b6000610c75600c83610805565b9150610c8082610c3f565b602082019050919050565b60006020820190508181036000830152610ca481610c68565b9050919050565b7f796f7520617265206e6f7420746865206d616e61676572000000000000000000600082015250565b6000610ce1601783610805565b9150610cec82610cab565b602082019050919050565b60006020820190508181036000830152610d1081610cd4565b9050919050565b7f706c617965727320617265206c657373207468616e2033000000000000000000600082015250565b6000610d4d601783610805565b9150610d5882610d17565b602082019050919050565b60006020820190508181036000830152610d7c81610d40565b9050919050565b7f4e487b7100000000000000000000000000000000000000000000000000000000600052601260045260246000fd5b6000610dbd82610882565b9150610dc883610882565b925082610dd857610dd7610d83565b5b828206905092915050565b6000819050919050565b610dfe610df982610882565b610de3565b82525050565b6000610e108286610ded565b602082019150610e208285610ded565b602082019150610e308284610ded565b60208201915081905094935050505056fea26469706673582212206e2d904bfbb60d1d74184bc23fbdf23e82a5355febdaf0a82952ef92d6d21ef664736f6c63430008110033",
  "immutableReferences": {},
  "source": "// SPDX-License-Identifier: GPL-3.0\npragma solidity >=0.8.0;\n\ncontract Lottary {\n    struct Players{\n        uint amount;\n        address  userAdd;\n    }\n   Players[] public players;\n\n    address manager;\n\n    // //winner player;\n\n    address payable public winner;\n\n    constructor() {\n        manager = msg.sender;\n    }\n\n    function exists(address v) public view returns (uint) {\n        for (uint256 i = 0; i < players.length; i++) {\n            if (v == players[i].userAdd) {\n                return i+1;\n            }\n         \n        }\n        return 0;\n    }\n\n    receive() external payable {\n        require(msg.value >= 1 ether, \"Please pay 1 atleast 1 ether\");\n        uint value=exists(msg.sender);\n        if (value==0) {\n            Players  memory newplayer=Players(msg.value,msg.sender);\n            players.push(newplayer);\n\n        } else {\n            players[value-1].amount += msg.value;\n        }\n    }\n    function allPlayers() public view returns (Players [] memory) {\n        return players;\n    }\n    function random() internal view returns (uint256) {\n        return\n            uint256(\n                keccak256(\n                    abi.encodePacked(\n                        block.timestamp,\n                        block.difficulty,\n                        block.number\n                    )\n                )\n            );\n    }\n\n    function getBalance() public view returns (uint256) {\n        require(manager == msg.sender, \"error found \");\n        return address(this).balance;\n    }\n\n    function pickWinner() public {\n        require(msg.sender == manager, \"you are not the manager\");\n        require(players.length >= 3, \"players are less than 3\");\n        uint256 r = random();\n        uint256 index = r % players.length;\n        winner=payable(players[index].userAdd);\n        winner.transfer(getBalance());\n        // //then reset our players\n       \n        // mapping(address => uint256) storage players1 = players;\n      delete players;\n    }\n\n \n}\n",
  "sourcePath": "/home/coder/Blog/blockchain1/dapp4/contracts/LottaryApp.sol",
  "compiler": {
    "name": "solc",
    "version": "0.8.17+commit.8df45f5f.Emscripten.clang"
  },
  "schemaVersion": "3.4.11",
  "updatedAt": "2023-01-19T04:20:58.163Z",
  "networkType": "ethereum",
  "devdoc": {
    "kind": "dev",
    "methods": {},
    "version": 1
  },
  "userdoc": {
    "kind": "user",
    "methods": {},
    "version": 1
  }
}